{
  "address": "0x6634B8e1D363eFb7074Ff97cE62241Cdd759aD18",
  "abi": [
    {
      "inputs": [
        {
          "internalType": "address",
          "name": "_owner",
          "type": "address"
        }
      ],
      "stateMutability": "nonpayable",
      "type": "constructor"
    },
    {
      "inputs": [],
      "name": "AlreadyRegistered",
      "type": "error"
    },
    {
      "inputs": [],
      "name": "EventFull",
      "type": "error"
    },
    {
      "inputs": [],
      "name": "EventNotActive",
      "type": "error"
    },
    {
      "inputs": [],
      "name": "NotRegistered",
      "type": "error"
    },
    {
      "inputs": [
        {
          "internalType": "address",
          "name": "owner",
          "type": "address"
        }
      ],
      "name": "OwnableInvalidOwner",
      "type": "error"
    },
    {
      "inputs": [
        {
          "internalType": "address",
          "name": "account",
          "type": "address"
        }
      ],
      "name": "OwnableUnauthorizedAccount",
      "type": "error"
    },
    {
      "inputs": [],
      "name": "OwnerCannotRegister",
      "type": "error"
    },
    {
      "anonymous": false,
      "inputs": [
        {
          "indexed": true,
          "internalType": "uint256",
          "name": "eventId",
          "type": "uint256"
        },
        {
          "indexed": true,
          "internalType": "address",
          "name": "participant",
          "type": "address"
        }
      ],
      "name": "AttendanceConfirmed",
      "type": "event"
    },
    {
      "anonymous": false,
      "inputs": [
        {
          "indexed": true,
          "internalType": "uint256",
          "name": "id",
          "type": "uint256"
        },
        {
          "indexed": false,
          "internalType": "string",
          "name": "name",
          "type": "string"
        },
        {
          "indexed": false,
          "internalType": "uint256",
          "name": "capacity",
          "type": "uint256"
        }
      ],
      "name": "EventCreated",
      "type": "event"
    },
    {
      "anonymous": false,
      "inputs": [
        {
          "indexed": true,
          "internalType": "address",
          "name": "previousOwner",
          "type": "address"
        },
        {
          "indexed": true,
          "internalType": "address",
          "name": "newOwner",
          "type": "address"
        }
      ],
      "name": "OwnershipTransferred",
      "type": "event"
    },
    {
      "anonymous": false,
      "inputs": [
        {
          "indexed": true,
          "internalType": "uint256",
          "name": "eventId",
          "type": "uint256"
        },
        {
          "indexed": true,
          "internalType": "address",
          "name": "participant",
          "type": "address"
        }
      ],
      "name": "ParticipantRegistered",
      "type": "event"
    },
    {
      "inputs": [
        {
          "internalType": "uint256",
          "name": "",
          "type": "uint256"
        },
        {
          "internalType": "address",
          "name": "",
          "type": "address"
        }
      ],
      "name": "confirmedAttendance",
      "outputs": [
        {
          "internalType": "bool",
          "name": "",
          "type": "bool"
        }
      ],
      "stateMutability": "view",
      "type": "function"
    },
    {
      "inputs": [
        {
          "internalType": "string",
          "name": "_name",
          "type": "string"
        },
        {
          "internalType": "string",
          "name": "_description",
          "type": "string"
        },
        {
          "internalType": "uint256",
          "name": "_date",
          "type": "uint256"
        },
        {
          "internalType": "uint256",
          "name": "_capacity",
          "type": "uint256"
        }
      ],
      "name": "createEvent",
      "outputs": [],
      "stateMutability": "nonpayable",
      "type": "function"
    },
    {
      "inputs": [],
      "name": "eventCount",
      "outputs": [
        {
          "internalType": "uint256",
          "name": "",
          "type": "uint256"
        }
      ],
      "stateMutability": "view",
      "type": "function"
    },
    {
      "inputs": [
        {
          "internalType": "uint256",
          "name": "",
          "type": "uint256"
        },
        {
          "internalType": "uint256",
          "name": "",
          "type": "uint256"
        }
      ],
      "name": "eventParticipants",
      "outputs": [
        {
          "internalType": "address",
          "name": "",
          "type": "address"
        }
      ],
      "stateMutability": "view",
      "type": "function"
    },
    {
      "inputs": [
        {
          "internalType": "uint256",
          "name": "",
          "type": "uint256"
        }
      ],
      "name": "events",
      "outputs": [
        {
          "internalType": "uint256",
          "name": "id",
          "type": "uint256"
        },
        {
          "internalType": "string",
          "name": "name",
          "type": "string"
        },
        {
          "internalType": "string",
          "name": "description",
          "type": "string"
        },
        {
          "internalType": "uint256",
          "name": "date",
          "type": "uint256"
        },
        {
          "internalType": "uint256",
          "name": "maxCapacity",
          "type": "uint256"
        },
        {
          "internalType": "uint256",
          "name": "registeredCount",
          "type": "uint256"
        },
        {
          "internalType": "bool",
          "name": "isActive",
          "type": "bool"
        }
      ],
      "stateMutability": "view",
      "type": "function"
    },
    {
      "inputs": [],
      "name": "getAllEvents",
      "outputs": [
        {
          "components": [
            {
              "internalType": "uint256",
              "name": "id",
              "type": "uint256"
            },
            {
              "internalType": "string",
              "name": "name",
              "type": "string"
            },
            {
              "internalType": "string",
              "name": "description",
              "type": "string"
            },
            {
              "internalType": "uint256",
              "name": "date",
              "type": "uint256"
            },
            {
              "internalType": "uint256",
              "name": "maxCapacity",
              "type": "uint256"
            },
            {
              "internalType": "uint256",
              "name": "registeredCount",
              "type": "uint256"
            },
            {
              "internalType": "bool",
              "name": "isActive",
              "type": "bool"
            }
          ],
          "internalType": "struct EventManager.Event[]",
          "name": "",
          "type": "tuple[]"
        }
      ],
      "stateMutability": "view",
      "type": "function"
    },
    {
      "inputs": [
        {
          "internalType": "uint256",
          "name": "_eventId",
          "type": "uint256"
        }
      ],
      "name": "getParticipants",
      "outputs": [
        {
          "internalType": "address[]",
          "name": "",
          "type": "address[]"
        }
      ],
      "stateMutability": "view",
      "type": "function"
    },
    {
      "inputs": [
        {
          "internalType": "uint256",
          "name": "_eventId",
          "type": "uint256"
        },
        {
          "internalType": "address",
          "name": "_participant",
          "type": "address"
        }
      ],
      "name": "hasCertificate",
      "outputs": [
        {
          "internalType": "bool",
          "name": "",
          "type": "bool"
        }
      ],
      "stateMutability": "view",
      "type": "function"
    },
    {
      "inputs": [],
      "name": "owner",
      "outputs": [
        {
          "internalType": "address",
          "name": "",
          "type": "address"
        }
      ],
      "stateMutability": "view",
      "type": "function"
    },
    {
      "inputs": [
        {
          "internalType": "uint256",
          "name": "",
          "type": "uint256"
        },
        {
          "internalType": "address",
          "name": "",
          "type": "address"
        }
      ],
      "name": "participantRegistry",
      "outputs": [
        {
          "internalType": "bool",
          "name": "",
          "type": "bool"
        }
      ],
      "stateMutability": "view",
      "type": "function"
    },
    {
      "inputs": [
        {
          "internalType": "uint256",
          "name": "_eventId",
          "type": "uint256"
        }
      ],
      "name": "register",
      "outputs": [],
      "stateMutability": "nonpayable",
      "type": "function"
    },
    {
      "inputs": [],
      "name": "renounceOwnership",
      "outputs": [],
      "stateMutability": "nonpayable",
      "type": "function"
    },
    {
      "inputs": [
        {
          "internalType": "address",
          "name": "newOwner",
          "type": "address"
        }
      ],
      "name": "transferOwnership",
      "outputs": [],
      "stateMutability": "nonpayable",
      "type": "function"
    },
    {
      "inputs": [
        {
          "internalType": "uint256",
          "name": "_eventId",
          "type": "uint256"
        },
        {
          "internalType": "address",
          "name": "_participant",
          "type": "address"
        }
      ],
      "name": "validateAttendance",
      "outputs": [],
      "stateMutability": "nonpayable",
      "type": "function"
    }
  ],
  "transactionHash": "0x9eb6c7aebc77eb4b65837fcdb4f13fd58048bbd0df4cb41972ecbd40b622d452",
  "args": [
    "0xA7DDDf1E1f0DE15147867759d4c16c30a2D27992"
  ],
  "numDeployments": 1,
  "solcInputHash": "3e859045bef7d73dbf09b9de2301489b",
  "bytecode": "0x608060405234801561001057600080fd5b5060405161112f38038061112f83398101604081905261002f916100be565b806001600160a01b03811661005e57604051631e4fbdf760e01b81526000600482015260240160405180910390fd5b6100678161006e565b50506100ee565b600080546001600160a01b038381166001600160a01b0319831681178455604051919092169283917f8be0079c531659141344cd1fd0a4f28419497f9722a3daafe3b4186f6b6457e09190a35050565b6000602082840312156100d057600080fd5b81516001600160a01b03811681146100e757600080fd5b9392505050565b611032806100fd6000396000f3fe608060405234801561001057600080fd5b50600436106100ea5760003560e01c80638da5cb5b1161008c578063c1e3bd3e11610066578063c1e3bd3e14610220578063c27a500d14610240578063f207564e14610255578063f2fde38b1461026857600080fd5b80638da5cb5b146101e9578063954fe2ce146101fa578063bce062b91461020d57600080fd5b806365acfed5116100c857806365acfed51461018a5780636fea5b941461019f578063715018a6146101ca57806371be2e4a146101d257600080fd5b80630b791430146100ef57806345c2517c1461011e578063586ee5551461015c575b600080fd5b6101026100fd366004610ad7565b61027b565b6040516101159796959493929190610b36565b60405180910390f35b61014c61012c366004610ba6565b600460209081526000928352604080842090915290825290205460ff1681565b6040519015158152602001610115565b61014c61016a366004610ba6565b600360209081526000928352604080842090915290825290205460ff1681565b61019d610198366004610ba6565b6103ca565b005b6101b26101ad366004610bd2565b610470565b6040516001600160a01b039091168152602001610115565b61019d6104a8565b6101db60015481565b604051908152602001610115565b6000546001600160a01b03166101b2565b61014c610208366004610ba6565b6104bc565b61019d61021b366004610c99565b6104e9565b61023361022e366004610ad7565b6105f6565b6040516101159190610d12565b610248610662565b6040516101159190610d5e565b61019d610263366004610ad7565b6108bd565b61019d610276366004610e1e565b610a17565b6002602052600090815260409020805460018201805491929161029d90610e40565b80601f01602080910402602001604051908101604052809291908181526020018280546102c990610e40565b80156103165780601f106102eb57610100808354040283529160200191610316565b820191906000526020600020905b8154815290600101906020018083116102f957829003601f168201915b50505050509080600201805461032b90610e40565b80601f016020809104026020016040519081016040528092919081815260200182805461035790610e40565b80156103a45780601f10610379576101008083540402835291602001916103a4565b820191906000526020600020905b81548152906001019060200180831161038757829003601f168201915b505050506003830154600484015460058501546006909501549394919390925060ff1687565b6103d2610a5a565b60008281526003602090815260408083206001600160a01b038516845290915290205460ff166104155760405163aba4733960e01b815260040160405180910390fd5b60008281526004602090815260408083206001600160a01b0385168085529252808320805460ff1916600117905551909184917f6cdb2335c973330b52437c88f8b1e61c616d55d2eb3b9324cae61830e279c2ba9190a35050565b6005602052816000526040600020818154811061048c57600080fd5b6000918252602090912001546001600160a01b03169150829050565b6104b0610a5a565b6104ba6000610a87565b565b60008281526004602090815260408083206001600160a01b038516845290915290205460ff165b92915050565b6104f1610a5a565b6001805490600061050183610e8a565b90915550506040805160e0810182526001805480835260208084018981528486018990526060850188905260808501879052600060a0860181905260c086018590529283526002909152939020825181559251919291908201906105659082610ef2565b506040820151600282019061057a9082610ef2565b50606082015160038201556080820151600482015560a0820151600582015560c0909101516006909101805460ff19169115159190911790556001546040517fee37bb5143a14810f72e86fce895be08e16090409d2e18f79b308995e39b73d4906105e89087908590610fb1565b60405180910390a250505050565b60008181526005602090815260409182902080548351818402810184019094528084526060939283018282801561065657602002820191906000526020600020905b81546001600160a01b03168152600190910190602001808311610638575b50505050509050919050565b6060600060015467ffffffffffffffff81111561068157610681610bf4565b6040519080825280602002602001820160405280156106f457816020015b6106e16040518060e001604052806000815260200160608152602001606081526020016000815260200160008152602001600081526020016000151581525090565b81526020019060019003908161069f5790505b50905060015b60015481116108b757600260008281526020019081526020016000206040518060e00160405290816000820154815260200160018201805461073b90610e40565b80601f016020809104026020016040519081016040528092919081815260200182805461076790610e40565b80156107b45780601f10610789576101008083540402835291602001916107b4565b820191906000526020600020905b81548152906001019060200180831161079757829003601f168201915b505050505081526020016002820180546107cd90610e40565b80601f01602080910402602001604051908101604052809291908181526020018280546107f990610e40565b80156108465780601f1061081b57610100808354040283529160200191610846565b820191906000526020600020905b81548152906001019060200180831161082957829003601f168201915b505050918352505060038201546020820152600482015460408201526005820154606082015260069091015460ff16151560809091015282610889600184610fd3565b8151811061089957610899610fe6565b602002602001018190525080806108af90610e8a565b9150506106fa565b50919050565b6000546001600160a01b031633036108e857604051632b7c039b60e21b815260040160405180910390fd5b6000818152600260205260409020600681015460ff1661091b576040516301e1837960e31b815260040160405180910390fd5b806004015481600501541061094357604051637dc73f6160e11b815260040160405180910390fd5b600082815260036020908152604080832033845290915290205460ff161561097e57604051630ea075bf60e21b815260040160405180910390fd5b600082815260036020908152604080832033808552908352818420805460ff19166001908117909155868552600580855292852080549182018155855292842090920180546001600160a01b03191690921790915582018054916109e183610e8a565b9091555050604051339083907f78337b3a0cfc36faafab5a292dc7571f6bd68ba681c22e15c97b1e3469b51a0290600090a35050565b610a1f610a5a565b6001600160a01b038116610a4e57604051631e4fbdf760e01b8152600060048201526024015b60405180910390fd5b610a5781610a87565b50565b6000546001600160a01b031633146104ba5760405163118cdaa760e01b8152336004820152602401610a45565b600080546001600160a01b038381166001600160a01b0319831681178455604051919092169283917f8be0079c531659141344cd1fd0a4f28419497f9722a3daafe3b4186f6b6457e09190a35050565b600060208284031215610ae957600080fd5b5035919050565b6000815180845260005b81811015610b1657602081850181015186830182015201610afa565b506000602082860101526020601f19601f83011685010191505092915050565b87815260e060208201526000610b4f60e0830189610af0565b8281036040840152610b618189610af0565b9150508560608301528460808301528360a083015282151560c083015298975050505050505050565b80356001600160a01b0381168114610ba157600080fd5b919050565b60008060408385031215610bb957600080fd5b82359150610bc960208401610b8a565b90509250929050565b60008060408385031215610be557600080fd5b50508035926020909101359150565b634e487b7160e01b600052604160045260246000fd5b600082601f830112610c1b57600080fd5b813567ffffffffffffffff811115610c3557610c35610bf4565b604051601f8201601f19908116603f0116810167ffffffffffffffff81118282101715610c6457610c64610bf4565b604052818152838201602001851015610c7c57600080fd5b816020850160208301376000918101602001919091529392505050565b60008060008060808587031215610caf57600080fd5b843567ffffffffffffffff811115610cc657600080fd5b610cd287828801610c0a565b945050602085013567ffffffffffffffff811115610cef57600080fd5b610cfb87828801610c0a565b949794965050505060408301359260600135919050565b602080825282518282018190526000918401906040840190835b81811015610d535783516001600160a01b0316835260209384019390920191600101610d2c565b509095945050505050565b6000602082016020835280845180835260408501915060408160051b86010192506020860160005b82811015610e1257603f19878603018452815180518652602081015160e06020880152610db660e0880182610af0565b905060408201518782036040890152610dcf8282610af0565b606084810151908a0152608080850151908a015260a080850151908a015260c0938401511515939098019290925250506020938401939190910190600101610d86565b50929695505050505050565b600060208284031215610e3057600080fd5b610e3982610b8a565b9392505050565b600181811c90821680610e5457607f821691505b6020821081036108b757634e487b7160e01b600052602260045260246000fd5b634e487b7160e01b600052601160045260246000fd5b600060018201610e9c57610e9c610e74565b5060010190565b601f821115610eed57806000526020600020601f840160051c81016020851015610eca5750805b601f840160051c820191505b81811015610eea5760008155600101610ed6565b50505b505050565b815167ffffffffffffffff811115610f0c57610f0c610bf4565b610f2081610f1a8454610e40565b84610ea3565b6020601f821160018114610f545760008315610f3c5750848201515b600019600385901b1c1916600184901b178455610eea565b600084815260208120601f198516915b82811015610f845787850151825560209485019460019092019101610f64565b5084821015610fa25786840151600019600387901b60f8161c191681555b50505050600190811b01905550565b604081526000610fc46040830185610af0565b90508260208301529392505050565b818103818111156104e3576104e3610e74565b634e487b7160e01b600052603260045260246000fdfea26469706673582212208f89ec2322a74787809e9998f051c97512f42eb70e66c09aebad183567e20ea164736f6c634300081e0033",
  "devdoc": {
    "errors": {
      "OwnableInvalidOwner(address)": [
        {
          "details": "The owner is not a valid owner account. (eg. `address(0)`)"
        }
      ],
      "OwnableUnauthorizedAccount(address)": [
        {
          "details": "The caller account is not authorized to perform an operation."
        }
      ]
    },
    "kind": "dev",
    "methods": {
      "getParticipants(uint256)": {
        "details": "Devuelve el array de direcciones inscritas para un evento específico."
      },
      "owner()": {
        "details": "Returns the address of the current owner."
      },
      "renounceOwnership()": {
        "details": "Leaves the contract without owner. It will not be possible to call `onlyOwner` functions. Can only be called by the current owner. NOTE: Renouncing ownership will leave the contract without an owner, thereby disabling any functionality that is only available to the owner."
      },
      "transferOwnership(address)": {
        "details": "Transfers ownership of the contract to a new account (`newOwner`). Can only be called by the current owner."
      }
    },
    "version": 1
  },
  "userdoc": {
    "kind": "user",
    "methods": {},
    "version": 1
  },
  "storageLayout": {
    "storage": [
      {
        "astId": 8,
        "contract": "contracts/EventManager.sol:EventManager",
        "label": "_owner",
        "offset": 0,
        "slot": "0",
        "type": "t_address"
      },
      {
        "astId": 199,
        "contract": "contracts/EventManager.sol:EventManager",
        "label": "eventCount",
        "offset": 0,
        "slot": "1",
        "type": "t_uint256"
      },
      {
        "astId": 204,
        "contract": "contracts/EventManager.sol:EventManager",
        "label": "events",
        "offset": 0,
        "slot": "2",
        "type": "t_mapping(t_uint256,t_struct(Event)197_storage)"
      },
      {
        "astId": 210,
        "contract": "contracts/EventManager.sol:EventManager",
        "label": "participantRegistry",
        "offset": 0,
        "slot": "3",
        "type": "t_mapping(t_uint256,t_mapping(t_address,t_bool))"
      },
      {
        "astId": 216,
        "contract": "contracts/EventManager.sol:EventManager",
        "label": "confirmedAttendance",
        "offset": 0,
        "slot": "4",
        "type": "t_mapping(t_uint256,t_mapping(t_address,t_bool))"
      },
      {
        "astId": 221,
        "contract": "contracts/EventManager.sol:EventManager",
        "label": "eventParticipants",
        "offset": 0,
        "slot": "5",
        "type": "t_mapping(t_uint256,t_array(t_address)dyn_storage)"
      }
    ],
    "types": {
      "t_address": {
        "encoding": "inplace",
        "label": "address",
        "numberOfBytes": "20"
      },
      "t_array(t_address)dyn_storage": {
        "base": "t_address",
        "encoding": "dynamic_array",
        "label": "address[]",
        "numberOfBytes": "32"
      },
      "t_bool": {
        "encoding": "inplace",
        "label": "bool",
        "numberOfBytes": "1"
      },
      "t_mapping(t_address,t_bool)": {
        "encoding": "mapping",
        "key": "t_address",
        "label": "mapping(address => bool)",
        "numberOfBytes": "32",
        "value": "t_bool"
      },
      "t_mapping(t_uint256,t_array(t_address)dyn_storage)": {
        "encoding": "mapping",
        "key": "t_uint256",
        "label": "mapping(uint256 => address[])",
        "numberOfBytes": "32",
        "value": "t_array(t_address)dyn_storage"
      },
      "t_mapping(t_uint256,t_mapping(t_address,t_bool))": {
        "encoding": "mapping",
        "key": "t_uint256",
        "label": "mapping(uint256 => mapping(address => bool))",
        "numberOfBytes": "32",
        "value": "t_mapping(t_address,t_bool)"
      },
      "t_mapping(t_uint256,t_struct(Event)197_storage)": {
        "encoding": "mapping",
        "key": "t_uint256",
        "label": "mapping(uint256 => struct EventManager.Event)",
        "numberOfBytes": "32",
        "value": "t_struct(Event)197_storage"
      },
      "t_string_storage": {
        "encoding": "bytes",
        "label": "string",
        "numberOfBytes": "32"
      },
      "t_struct(Event)197_storage": {
        "encoding": "inplace",
        "label": "struct EventManager.Event",
        "members": [
          {
            "astId": 184,
            "contract": "contracts/EventManager.sol:EventManager",
            "label": "id",
            "offset": 0,
            "slot": "0",
            "type": "t_uint256"
          },
          {
            "astId": 186,
            "contract": "contracts/EventManager.sol:EventManager",
            "label": "name",
            "offset": 0,
            "slot": "1",
            "type": "t_string_storage"
          },
          {
            "astId": 188,
            "contract": "contracts/EventManager.sol:EventManager",
            "label": "description",
            "offset": 0,
            "slot": "2",
            "type": "t_string_storage"
          },
          {
            "astId": 190,
            "contract": "contracts/EventManager.sol:EventManager",
            "label": "date",
            "offset": 0,
            "slot": "3",
            "type": "t_uint256"
          },
          {
            "astId": 192,
            "contract": "contracts/EventManager.sol:EventManager",
            "label": "maxCapacity",
            "offset": 0,
            "slot": "4",
            "type": "t_uint256"
          },
          {
            "astId": 194,
            "contract": "contracts/EventManager.sol:EventManager",
            "label": "registeredCount",
            "offset": 0,
            "slot": "5",
            "type": "t_uint256"
          },
          {
            "astId": 196,
            "contract": "contracts/EventManager.sol:EventManager",
            "label": "isActive",
            "offset": 0,
            "slot": "6",
            "type": "t_bool"
          }
        ],
        "numberOfBytes": "224"
      },
      "t_uint256": {
        "encoding": "inplace",
        "label": "uint256",
        "numberOfBytes": "32"
      }
    }
  }
}